{
  "address": "0xf4548bB37353A0433A80592E146Bf96393A3f78F",
  "abi": [
    {
      "inputs": [
        {
          "internalType": "string",
          "name": "name",
          "type": "string"
        },
        {
          "internalType": "string",
          "name": "symbol",
          "type": "string"
        },
        {
          "internalType": "string",
          "name": "baseTokenURI",
          "type": "string"
        },
        {
          "internalType": "address[]",
          "name": "minters",
          "type": "address[]"
        }
      ],
      "stateMutability": "nonpayable",
      "type": "constructor"
    },
    {
      "anonymous": false,
      "inputs": [
        {
          "indexed": true,
          "internalType": "address",
          "name": "account",
          "type": "address"
        },
        {
          "indexed": true,
          "internalType": "address",
          "name": "operator",
          "type": "address"
        },
        {
          "indexed": false,
          "internalType": "bool",
          "name": "approved",
          "type": "bool"
        }
      ],
      "name": "ApprovalForAll",
      "type": "event"
    },
    {
      "anonymous": false,
      "inputs": [
        {
          "indexed": true,
          "internalType": "bytes32",
          "name": "role",
          "type": "bytes32"
        },
        {
          "indexed": true,
          "internalType": "bytes32",
          "name": "previousAdminRole",
          "type": "bytes32"
        },
        {
          "indexed": true,
          "internalType": "bytes32",
          "name": "newAdminRole",
          "type": "bytes32"
        }
      ],
      "name": "RoleAdminChanged",
      "type": "event"
    },
    {
      "anonymous": false,
      "inputs": [
        {
          "indexed": true,
          "internalType": "bytes32",
          "name": "role",
          "type": "bytes32"
        },
        {
          "indexed": true,
          "internalType": "address",
          "name": "account",
          "type": "address"
        },
        {
          "indexed": true,
          "internalType": "address",
          "name": "sender",
          "type": "address"
        }
      ],
      "name": "RoleGranted",
      "type": "event"
    },
    {
      "anonymous": false,
      "inputs": [
        {
          "indexed": true,
          "internalType": "bytes32",
          "name": "role",
          "type": "bytes32"
        },
        {
          "indexed": true,
          "internalType": "address",
          "name": "account",
          "type": "address"
        },
        {
          "indexed": true,
          "internalType": "address",
          "name": "sender",
          "type": "address"
        }
      ],
      "name": "RoleRevoked",
      "type": "event"
    },
    {
      "anonymous": false,
      "inputs": [
        {
          "indexed": true,
          "internalType": "address",
          "name": "operator",
          "type": "address"
        },
        {
          "indexed": true,
          "internalType": "address",
          "name": "from",
          "type": "address"
        },
        {
          "indexed": true,
          "internalType": "address",
          "name": "to",
          "type": "address"
        },
        {
          "indexed": false,
          "internalType": "uint256[]",
          "name": "ids",
          "type": "uint256[]"
        },
        {
          "indexed": false,
          "internalType": "uint256[]",
          "name": "values",
          "type": "uint256[]"
        }
      ],
      "name": "TransferBatch",
      "type": "event"
    },
    {
      "anonymous": false,
      "inputs": [
        {
          "indexed": true,
          "internalType": "address",
          "name": "operator",
          "type": "address"
        },
        {
          "indexed": true,
          "internalType": "address",
          "name": "from",
          "type": "address"
        },
        {
          "indexed": true,
          "internalType": "address",
          "name": "to",
          "type": "address"
        },
        {
          "indexed": false,
          "internalType": "uint256",
          "name": "id",
          "type": "uint256"
        },
        {
          "indexed": false,
          "internalType": "uint256",
          "name": "value",
          "type": "uint256"
        }
      ],
      "name": "TransferSingle",
      "type": "event"
    },
    {
      "anonymous": false,
      "inputs": [
        {
          "indexed": false,
          "internalType": "string",
          "name": "value",
          "type": "string"
        },
        {
          "indexed": true,
          "internalType": "uint256",
          "name": "id",
          "type": "uint256"
        }
      ],
      "name": "URI",
      "type": "event"
    },
    {
      "inputs": [],
      "name": "DEFAULT_ADMIN_ROLE",
      "outputs": [
        {
          "internalType": "bytes32",
          "name": "",
          "type": "bytes32"
        }
      ],
      "stateMutability": "view",
      "type": "function"
    },
    {
      "inputs": [],
      "name": "MINTER_ROLE",
      "outputs": [
        {
          "internalType": "bytes32",
          "name": "",
          "type": "bytes32"
        }
      ],
      "stateMutability": "view",
      "type": "function"
    },
    {
      "inputs": [
        {
          "internalType": "address",
          "name": "account",
          "type": "address"
        },
        {
          "internalType": "uint256",
          "name": "id",
          "type": "uint256"
        }
      ],
      "name": "balanceOf",
      "outputs": [
        {
          "internalType": "uint256",
          "name": "",
          "type": "uint256"
        }
      ],
      "stateMutability": "view",
      "type": "function"
    },
    {
      "inputs": [
        {
          "internalType": "address[]",
          "name": "accounts",
          "type": "address[]"
        },
        {
          "internalType": "uint256[]",
          "name": "ids",
          "type": "uint256[]"
        }
      ],
      "name": "balanceOfBatch",
      "outputs": [
        {
          "internalType": "uint256[]",
          "name": "",
          "type": "uint256[]"
        }
      ],
      "stateMutability": "view",
      "type": "function"
    },
    {
      "inputs": [
        {
          "internalType": "address",
          "name": "to",
          "type": "address"
        },
        {
          "internalType": "uint256[]",
          "name": "ids",
          "type": "uint256[]"
        },
        {
          "internalType": "uint256[]",
          "name": "amounts",
          "type": "uint256[]"
        }
      ],
      "name": "batchMint",
      "outputs": [],
      "stateMutability": "nonpayable",
      "type": "function"
    },
    {
      "inputs": [
        {
          "internalType": "uint256",
          "name": "id",
          "type": "uint256"
        }
      ],
      "name": "exists",
      "outputs": [
        {
          "internalType": "bool",
          "name": "",
          "type": "bool"
        }
      ],
      "stateMutability": "view",
      "type": "function"
    },
    {
      "inputs": [
        {
          "internalType": "bytes32",
          "name": "role",
          "type": "bytes32"
        }
      ],
      "name": "getRoleAdmin",
      "outputs": [
        {
          "internalType": "bytes32",
          "name": "",
          "type": "bytes32"
        }
      ],
      "stateMutability": "view",
      "type": "function"
    },
    {
      "inputs": [
        {
          "internalType": "bytes32",
          "name": "role",
          "type": "bytes32"
        },
        {
          "internalType": "uint256",
          "name": "index",
          "type": "uint256"
        }
      ],
      "name": "getRoleMember",
      "outputs": [
        {
          "internalType": "address",
          "name": "",
          "type": "address"
        }
      ],
      "stateMutability": "view",
      "type": "function"
    },
    {
      "inputs": [
        {
          "internalType": "bytes32",
          "name": "role",
          "type": "bytes32"
        }
      ],
      "name": "getRoleMemberCount",
      "outputs": [
        {
          "internalType": "uint256",
          "name": "",
          "type": "uint256"
        }
      ],
      "stateMutability": "view",
      "type": "function"
    },
    {
      "inputs": [
        {
          "internalType": "bytes32",
          "name": "role",
          "type": "bytes32"
        },
        {
          "internalType": "address",
          "name": "account",
          "type": "address"
        }
      ],
      "name": "grantRole",
      "outputs": [],
      "stateMutability": "nonpayable",
      "type": "function"
    },
    {
      "inputs": [
        {
          "internalType": "bytes32",
          "name": "role",
          "type": "bytes32"
        },
        {
          "internalType": "address",
          "name": "account",
          "type": "address"
        }
      ],
      "name": "hasRole",
      "outputs": [
        {
          "internalType": "bool",
          "name": "",
          "type": "bool"
        }
      ],
      "stateMutability": "view",
      "type": "function"
    },
    {
      "inputs": [
        {
          "internalType": "address",
          "name": "account",
          "type": "address"
        },
        {
          "internalType": "address",
          "name": "operator",
          "type": "address"
        }
      ],
      "name": "isApprovedForAll",
      "outputs": [
        {
          "internalType": "bool",
          "name": "",
          "type": "bool"
        }
      ],
      "stateMutability": "view",
      "type": "function"
    },
    {
      "inputs": [
        {
          "internalType": "address",
          "name": "to",
          "type": "address"
        },
        {
          "internalType": "uint256",
          "name": "id",
          "type": "uint256"
        },
        {
          "internalType": "uint256",
          "name": "amount",
          "type": "uint256"
        }
      ],
      "name": "mint",
      "outputs": [],
      "stateMutability": "nonpayable",
      "type": "function"
    },
    {
      "inputs": [
        {
          "internalType": "address",
          "name": "to",
          "type": "address"
        },
        {
          "internalType": "uint256",
          "name": "quantity",
          "type": "uint256"
        },
        {
          "internalType": "bytes",
          "name": "",
          "type": "bytes"
        }
      ],
      "name": "mintLaunchpad",
      "outputs": [
        {
          "internalType": "uint256[]",
          "name": "tokenIds",
          "type": "uint256[]"
        },
        {
          "internalType": "uint256[]",
          "name": "amounts",
          "type": "uint256[]"
        }
      ],
      "stateMutability": "nonpayable",
      "type": "function"
    },
    {
      "inputs": [],
      "name": "name",
      "outputs": [
        {
          "internalType": "string",
          "name": "",
          "type": "string"
        }
      ],
      "stateMutability": "view",
      "type": "function"
    },
    {
      "inputs": [
        {
          "internalType": "bytes32",
          "name": "role",
          "type": "bytes32"
        },
        {
          "internalType": "address",
          "name": "account",
          "type": "address"
        }
      ],
      "name": "renounceRole",
      "outputs": [],
      "stateMutability": "nonpayable",
      "type": "function"
    },
    {
      "inputs": [
        {
          "internalType": "bytes32",
          "name": "role",
          "type": "bytes32"
        },
        {
          "internalType": "address",
          "name": "account",
          "type": "address"
        }
      ],
      "name": "revokeRole",
      "outputs": [],
      "stateMutability": "nonpayable",
      "type": "function"
    },
    {
      "inputs": [
        {
          "internalType": "address",
          "name": "from",
          "type": "address"
        },
        {
          "internalType": "address",
          "name": "to",
          "type": "address"
        },
        {
          "internalType": "uint256[]",
          "name": "ids",
          "type": "uint256[]"
        },
        {
          "internalType": "uint256[]",
          "name": "amounts",
          "type": "uint256[]"
        },
        {
          "internalType": "bytes",
          "name": "data",
          "type": "bytes"
        }
      ],
      "name": "safeBatchTransferFrom",
      "outputs": [],
      "stateMutability": "nonpayable",
      "type": "function"
    },
    {
      "inputs": [
        {
          "internalType": "address",
          "name": "from",
          "type": "address"
        },
        {
          "internalType": "address",
          "name": "to",
          "type": "address"
        },
        {
          "internalType": "uint256",
          "name": "id",
          "type": "uint256"
        },
        {
          "internalType": "uint256",
          "name": "amount",
          "type": "uint256"
        },
        {
          "internalType": "bytes",
          "name": "data",
          "type": "bytes"
        }
      ],
      "name": "safeTransferFrom",
      "outputs": [],
      "stateMutability": "nonpayable",
      "type": "function"
    },
    {
      "inputs": [
        {
          "internalType": "address",
          "name": "operator",
          "type": "address"
        },
        {
          "internalType": "bool",
          "name": "approved",
          "type": "bool"
        }
      ],
      "name": "setApprovalForAll",
      "outputs": [],
      "stateMutability": "nonpayable",
      "type": "function"
    },
    {
      "inputs": [
        {
          "internalType": "string",
          "name": "uri_",
          "type": "string"
        }
      ],
      "name": "setURI",
      "outputs": [],
      "stateMutability": "nonpayable",
      "type": "function"
    },
    {
      "inputs": [
        {
          "internalType": "bytes4",
          "name": "interfaceId",
          "type": "bytes4"
        }
      ],
      "name": "supportsInterface",
      "outputs": [
        {
          "internalType": "bool",
          "name": "",
          "type": "bool"
        }
      ],
      "stateMutability": "view",
      "type": "function"
    },
    {
      "inputs": [],
      "name": "symbol",
      "outputs": [
        {
          "internalType": "string",
          "name": "",
          "type": "string"
        }
      ],
      "stateMutability": "view",
      "type": "function"
    },
    {
      "inputs": [
        {
          "internalType": "uint256",
          "name": "id",
          "type": "uint256"
        }
      ],
      "name": "totalSupply",
      "outputs": [
        {
          "internalType": "uint256",
          "name": "",
          "type": "uint256"
        }
      ],
      "stateMutability": "view",
      "type": "function"
    },
    {
      "inputs": [
        {
          "internalType": "uint256",
          "name": "tokenId",
          "type": "uint256"
        }
      ],
      "name": "uri",
      "outputs": [
        {
          "internalType": "string",
          "name": "",
          "type": "string"
        }
      ],
      "stateMutability": "view",
      "type": "function"
    }
  ],
  "transactionHash": "0x629245f4be97708711af0e9e1d31357ddf577aad4116336fd7864e5355754e7a",
  "args": [
    "Erc1155DangDang",
    "Erc1155DangDang",
    "https://raw.githubusercontent.com/HoangNguyen17193/cdn/main/",
    [
      "0xb4b58cdc14edbf998762e1592f457e3385885818"
    ]
  ],
  "numDeployments": 1,
  "solcInputHash": "0e65557d1309db0ae9bad7aefe2a5c17",
  "bytecode": "0x60806040523480156200001157600080fd5b5060405162002e7b38038062002e7b83398101604081905262000034916200030d565b83838383816200004481620000e8565b506006620000538582620004d9565b506007620000628482620004d9565b5062000070600033620000fa565b80517f9f2df0fed2c77648de5860a4cc508cd0818c85b8b8a1ab4ceeef8d981c8956a69060005b81811015620000d757620000ce83858381518110620000ba57620000ba620005a5565b6020026020010151620000fa60201b60201c565b60010162000097565b5050505050505050505050620005bb565b6004620000f68282620004d9565b5050565b62000106828262000125565b6000828152600160205260409020620001209082620001c5565b505050565b6000828152602081815260408083206001600160a01b038516845290915290205460ff16620000f6576000828152602081815260408083206001600160a01b03851684529091529020805460ff19166001179055620001813390565b6001600160a01b0316816001600160a01b0316837f2f8788117e7eff1d82e926ec794901d17c78024a50270940304540a733656f0d60405160405180910390a45050565b6000620001dc836001600160a01b038416620001e5565b90505b92915050565b60008181526001830160205260408120546200022e57508154600181810184556000848152602080822090930184905584548482528286019093526040902091909155620001df565b506000620001df565b634e487b7160e01b600052604160045260246000fd5b604051601f8201601f191681016001600160401b038111828210171562000278576200027862000237565b604052919050565b600082601f8301126200029257600080fd5b81516001600160401b03811115620002ae57620002ae62000237565b6020620002c4601f8301601f191682016200024d565b8281528582848701011115620002d957600080fd5b60005b83811015620002f9578581018301518282018401528201620002dc565b506000928101909101919091529392505050565b600080600080608085870312156200032457600080fd5b84516001600160401b03808211156200033c57600080fd5b6200034a8883890162000280565b95506020915081870151818111156200036257600080fd5b6200037089828a0162000280565b9550506040870151818111156200038657600080fd5b6200039489828a0162000280565b945050606087015181811115620003aa57600080fd5b8701601f81018913620003bc57600080fd5b805182811115620003d157620003d162000237565b8060051b9250620003e48484016200024d565b818152928201840192848101908b851115620003ff57600080fd5b928501925b848410156200043957835192506001600160a01b0383168314620004285760008081fd5b828252928501929085019062000404565b989b979a50959850505050505050565b600181811c908216806200045e57607f821691505b6020821081036200047f57634e487b7160e01b600052602260045260246000fd5b50919050565b601f82111562000120576000816000526020600020601f850160051c81016020861015620004b05750805b601f850160051c820191505b81811015620004d157828155600101620004bc565b505050505050565b81516001600160401b03811115620004f557620004f562000237565b6200050d8162000506845462000449565b8462000485565b602080601f8311600181146200054557600084156200052c5750858301515b600019600386901b1c1916600185901b178555620004d1565b600085815260208120601f198616915b82811015620005765788860151825594840194600190910190840162000555565b5085821015620005955787850151600019600388901b60f8161c191681555b5050505050600190811b01905550565b634e487b7160e01b600052603260045260246000fd5b6128b080620005cb6000396000f3fe608060405234801561001057600080fd5b50600436106101725760003560e01c80634f558e79116100de578063a22cb46511610097578063d539139311610071578063d539139314610376578063d547741f1461039d578063e985e9c5146103b0578063f242432a146103ec57600080fd5b8063a22cb46514610330578063bd85b03914610343578063ca15c8731461036357600080fd5b80634f558e791461029f5780639010d07c146102c157806391d14854146102ec57806395d89b41146102ff578063a1612e7914610307578063a217fddf1461032857600080fd5b8063156e29f611610130578063156e29f614610210578063248a9ca3146102235780632eb2c2d6146102465780632f2ff15d1461025957806336568abe1461026c5780634e1273f41461027f57600080fd5b8062fdd58e1461017757806301ffc9a71461019d57806302fe5305146101c057806306fdde03146101d55780630ca83480146101ea5780630e89341c146101fd575b600080fd5b61018a610185366004611bf8565b6103ff565b6040519081526020015b60405180910390f35b6101b06101ab366004611c38565b61049a565b6040519015158152602001610194565b6101d36101ce366004611c55565b6104bf565b005b6101dd61050e565b6040516101949190611d16565b6101d36101f8366004611d74565b6105a0565b6101dd61020b366004611df4565b61064e565b6101d361021e366004611e0d565b61068f565b61018a610231366004611df4565b60009081526020819052604090206001015490565b6101d3610254366004611f8e565b6106da565b6101d3610267366004612037565b610726565b6101d361027a366004612037565b61074b565b61029261028d366004612063565b6107c9565b6040516101949190612169565b6101b06102ad366004611df4565b600090815260056020526040902054151590565b6102d46102cf36600461217c565b6108ea565b6040516001600160a01b039091168152602001610194565b6101b06102fa366004612037565b610909565b6101dd610932565b61031a61031536600461219e565b610941565b6040516101949291906121f4565b61018a600081565b6101d361033e366004612222565b6109e9565b61018a610351366004611df4565b60009081526005602052604090205490565b61018a610371366004611df4565b6109f4565b61018a7f9f2df0fed2c77648de5860a4cc508cd0818c85b8b8a1ab4ceeef8d981c8956a681565b6101d36103ab366004612037565b610a0b565b6101b06103be36600461225e565b6001600160a01b03918216600090815260036020908152604080832093909416825291909152205460ff1690565b6101d36103fa366004612288565b610a30565b60006001600160a01b03831661046f5760405162461bcd60e51b815260206004820152602a60248201527f455243313135353a2061646472657373207a65726f206973206e6f742061207660448201526930b634b21037bbb732b960b11b60648201526084015b60405180910390fd5b5060008181526002602090815260408083206001600160a01b03861684529091529020545b92915050565b60006001600160e01b0319821663a1612e7960e01b1480610494575061049482610a75565b60006104ca81610a80565b61050983838080601f016020809104026020016040519081016040528093929190818152602001838380828437600092019190915250610a8d92505050565b505050565b60606006805461051d906122ec565b80601f0160208091040260200160405190810160405280929190818152602001828054610549906122ec565b80156105965780601f1061056b57610100808354040283529160200191610596565b820191906000526020600020905b81548152906001019060200180831161057957829003601f168201915b5050505050905090565b7f9f2df0fed2c77648de5860a4cc508cd0818c85b8b8a1ab4ceeef8d981c8956a66105ca81610a80565b6106468686868080602002602001604051908101604052809392919081815260200183836020028082843760009201919091525050604080516020808a02828101820190935289825290935089925088918291850190849080828437600092018290525060408051602081019091529081529250610a99915050565b505050505050565b6060600061065b83610be9565b90508061066784610c7d565b604051602001610678929190612326565b604051602081830303815290604052915050919050565b7f9f2df0fed2c77648de5860a4cc508cd0818c85b8b8a1ab4ceeef8d981c8956a66106b981610a80565b6106d484848460405180602001604052806000815250610d0f565b50505050565b6001600160a01b0385163314806106f657506106f685336103be565b6107125760405162461bcd60e51b815260040161046690612355565b61071f8585858585610dfa565b5050505050565b60008281526020819052604090206001015461074181610a80565b6105098383610f98565b6001600160a01b03811633146107bb5760405162461bcd60e51b815260206004820152602f60248201527f416363657373436f6e74726f6c3a2063616e206f6e6c792072656e6f756e636560448201526e103937b632b9903337b91039b2b63360891b6064820152608401610466565b6107c58282610fba565b5050565b6060815183511461082e5760405162461bcd60e51b815260206004820152602960248201527f455243313135353a206163636f756e747320616e6420696473206c656e677468604482015268040dad2e6dac2e8c6d60bb1b6064820152608401610466565b600083516001600160401b0381111561084957610849611e40565b604051908082528060200260200182016040528015610872578160200160208202803683370190505b50905060005b84518110156108e2576108bd858281518110610896576108966123a3565b60200260200101518583815181106108b0576108b06123a3565b60200260200101516103ff565b8282815181106108cf576108cf6123a3565b6020908102919091010152600101610878565b509392505050565b60008281526001602052604081206109029083610fdc565b9392505050565b6000918252602082815260408084206001600160a01b0393909316845291905290205460ff1690565b60606007805461051d906122ec565b6060806109608560068660405180602001604052806000815250610d0f565b604080516001808252818301909252906020808301908036833750506040805160018082528183019092529294509050602080830190803683370190505090506006826000815181106109b5576109b56123a3565b60200260200101818152505083816000815181106109d5576109d56123a3565b602002602001018181525050935093915050565b6107c5338383610fe8565b6000818152600160205260408120610494906110c8565b600082815260208190526040902060010154610a2681610a80565b6105098383610fba565b6001600160a01b038516331480610a4c5750610a4c85336103be565b610a685760405162461bcd60e51b815260040161046690612355565b61071f85858585856110d2565b60006104948261120e565b610a8a813361124e565b50565b60046107c58282612401565b6001600160a01b038416610abf5760405162461bcd60e51b8152600401610466906124c0565b8151835114610ae05760405162461bcd60e51b815260040161046690612501565b33610af0816000878787876112a7565b60005b8451811015610b8157838181518110610b0e57610b0e6123a3565b602002602001015160026000878481518110610b2c57610b2c6123a3565b602002602001015181526020019081526020016000206000886001600160a01b03166001600160a01b031681526020019081526020016000206000828254610b74919061255f565b9091555050600101610af3565b50846001600160a01b031660006001600160a01b0316826001600160a01b03167f4a39dc06d4c0dbc64b70af90fd698a233a518aa5d07e595d983b8c0526c8f7fb8787604051610bd29291906121f4565b60405180910390a461071f816000878787876112b5565b606060048054610bf8906122ec565b80601f0160208091040260200160405190810160405280929190818152602001828054610c24906122ec565b8015610c715780601f10610c4657610100808354040283529160200191610c71565b820191906000526020600020905b815481529060010190602001808311610c5457829003601f168201915b50505050509050919050565b60606000610c8a83611410565b60010190506000816001600160401b03811115610ca957610ca9611e40565b6040519080825280601f01601f191660200182016040528015610cd3576020820181803683370190505b5090508181016020015b600019016f181899199a1a9b1b9c1cb0b131b232b360811b600a86061a8153600a8504945084610cdd57509392505050565b6001600160a01b038416610d355760405162461bcd60e51b8152600401610466906124c0565b336000610d41856114e8565b90506000610d4e856114e8565b9050610d5f836000898585896112a7565b60008681526002602090815260408083206001600160a01b038b16845290915281208054879290610d9190849061255f565b909155505060408051878152602081018790526001600160a01b03808a1692600092918716917fc3d58168c5ae7397731d063d5bbf3d657854427343f4c083240f7aacaa2d0f62910160405180910390a4610df183600089898989611533565b50505050505050565b8151835114610e1b5760405162461bcd60e51b815260040161046690612501565b6001600160a01b038416610e415760405162461bcd60e51b815260040161046690612572565b33610e508187878787876112a7565b60005b8451811015610f32576000858281518110610e7057610e706123a3565b602002602001015190506000858381518110610e8e57610e8e6123a3565b60209081029190910181015160008481526002835260408082206001600160a01b038e168352909352919091205490915081811015610edf5760405162461bcd60e51b8152600401610466906125b7565b60008381526002602090815260408083206001600160a01b038e8116855292528083208585039055908b16825281208054849290610f1e90849061255f565b909155505060019093019250610e53915050565b50846001600160a01b0316866001600160a01b0316826001600160a01b03167f4a39dc06d4c0dbc64b70af90fd698a233a518aa5d07e595d983b8c0526c8f7fb8787604051610f829291906121f4565b60405180910390a46106468187878787876112b5565b610fa282826115ee565b60008281526001602052604090206105099082611672565b610fc48282611687565b600082815260016020526040902061050990826116ec565b60006109028383611701565b816001600160a01b0316836001600160a01b03160361105b5760405162461bcd60e51b815260206004820152602960248201527f455243313135353a2073657474696e6720617070726f76616c20737461747573604482015268103337b91039b2b63360b91b6064820152608401610466565b6001600160a01b03838116600081815260036020908152604080832094871680845294825291829020805460ff191686151590811790915591519182527f17307eab39ab6107e8899845ad3d59bd9653f200f220920489ca2b5937696c31910160405180910390a3505050565b6000610494825490565b6001600160a01b0384166110f85760405162461bcd60e51b815260040161046690612572565b336000611104856114e8565b90506000611111856114e8565b90506111218389898585896112a7565b60008681526002602090815260408083206001600160a01b038c168452909152902054858110156111645760405162461bcd60e51b8152600401610466906125b7565b60008781526002602090815260408083206001600160a01b038d8116855292528083208985039055908a168252812080548892906111a390849061255f565b909155505060408051888152602081018890526001600160a01b03808b16928c821692918816917fc3d58168c5ae7397731d063d5bbf3d657854427343f4c083240f7aacaa2d0f62910160405180910390a4611203848a8a8a8a8a611533565b505050505050505050565b60006001600160e01b03198216636cdb3d1360e11b148061123f57506001600160e01b031982166303a24d0760e21b145b8061049457506104948261172b565b6112588282610909565b6107c55761126581611750565b611270836020611762565b604051602001611281929190612601565b60408051601f198184030181529082905262461bcd60e51b825261046691600401611d16565b6106468686868686866118fd565b6001600160a01b0384163b156106465760405163bc197c8160e01b81526001600160a01b0385169063bc197c81906112f99089908990889088908890600401612676565b6020604051808303816000875af1925050508015611334575060408051601f3d908101601f19168201909252611331918101906126d4565b60015b6113e0576113406126f1565b806308c379a003611379575061135461270d565b8061135f575061137b565b8060405162461bcd60e51b81526004016104669190611d16565b505b60405162461bcd60e51b815260206004820152603460248201527f455243313135353a207472616e7366657220746f206e6f6e2d455243313135356044820152732932b1b2b4bb32b91034b6b83632b6b2b73a32b960611b6064820152608401610466565b6001600160e01b0319811663bc197c8160e01b14610df15760405162461bcd60e51b815260040161046690612796565b60008072184f03e93ff9f4daa797ed6e38ed64bf6a1f0160401b831061144f5772184f03e93ff9f4daa797ed6e38ed64bf6a1f0160401b830492506040015b6d04ee2d6d415b85acef8100000000831061147b576d04ee2d6d415b85acef8100000000830492506020015b662386f26fc10000831061149957662386f26fc10000830492506010015b6305f5e10083106114b1576305f5e100830492506008015b61271083106114c557612710830492506004015b606483106114d7576064830492506002015b600a83106104945760010192915050565b60408051600180825281830190925260609160009190602080830190803683370190505090508281600081518110611522576115226123a3565b602090810291909101015292915050565b6001600160a01b0384163b156106465760405163f23a6e6160e01b81526001600160a01b0385169063f23a6e619061157790899089908890889088906004016127de565b6020604051808303816000875af19250505080156115b2575060408051601f3d908101601f191682019092526115af918101906126d4565b60015b6115be576113406126f1565b6001600160e01b0319811663f23a6e6160e01b14610df15760405162461bcd60e51b815260040161046690612796565b6115f88282610909565b6107c5576000828152602081815260408083206001600160a01b03851684529091529020805460ff1916600117905561162e3390565b6001600160a01b0316816001600160a01b0316837f2f8788117e7eff1d82e926ec794901d17c78024a50270940304540a733656f0d60405160405180910390a45050565b6000610902836001600160a01b038416611a65565b6116918282610909565b156107c5576000828152602081815260408083206001600160a01b0385168085529252808320805460ff1916905551339285917ff6391f5c32d9c69d2a47ea670b442974b53935d1edc7fd64eb21e047a839171b9190a45050565b6000610902836001600160a01b038416611ab4565b6000826000018281548110611718576117186123a3565b9060005260206000200154905092915050565b60006001600160e01b03198216635a05180f60e01b1480610494575061049482611ba7565b60606104946001600160a01b03831660145b60606000611771836002612823565b61177c90600261255f565b6001600160401b0381111561179357611793611e40565b6040519080825280601f01601f1916602001820160405280156117bd576020820181803683370190505b509050600360fc1b816000815181106117d8576117d86123a3565b60200101906001600160f81b031916908160001a905350600f60fb1b81600181518110611807576118076123a3565b60200101906001600160f81b031916908160001a905350600061182b846002612823565b61183690600161255f565b90505b60018111156118ae576f181899199a1a9b1b9c1cb0b131b232b360811b85600f166010811061186a5761186a6123a3565b1a60f81b828281518110611880576118806123a3565b60200101906001600160f81b031916908160001a90535060049490941c936118a78161283a565b9050611839565b5083156109025760405162461bcd60e51b815260206004820181905260248201527f537472696e67733a20686578206c656e67746820696e73756666696369656e746044820152606401610466565b6001600160a01b03851661197b5760005b835181101561197957828181518110611929576119296123a3565b602002602001015160056000868481518110611947576119476123a3565b60200260200101518152602001908152602001600020600082825461196c919061255f565b909155505060010161190e565b505b6001600160a01b0384166106465760005b8351811015610df15760008482815181106119a9576119a96123a3565b6020026020010151905060008483815181106119c7576119c76123a3565b6020026020010151905060006005600084815260200190815260200160002054905081811015611a4a5760405162461bcd60e51b815260206004820152602860248201527f455243313135353a206275726e20616d6f756e74206578636565647320746f74604482015267616c537570706c7960c01b6064820152608401610466565b6000928352600560205260409092209103905560010161198c565b6000818152600183016020526040812054611aac57508154600181810184556000848152602080822090930184905584548482528286019093526040902091909155610494565b506000610494565b60008181526001830160205260408120548015611b9d576000611ad8600183612851565b8554909150600090611aec90600190612851565b9050818114611b51576000866000018281548110611b0c57611b0c6123a3565b9060005260206000200154905080876000018481548110611b2f57611b2f6123a3565b6000918252602080832090910192909255918252600188019052604090208390555b8554869080611b6257611b62612864565b600190038181906000526020600020016000905590558560010160008681526020019081526020016000206000905560019350505050610494565b6000915050610494565b60006001600160e01b03198216637965db0b60e01b148061049457506301ffc9a760e01b6001600160e01b0319831614610494565b80356001600160a01b0381168114611bf357600080fd5b919050565b60008060408385031215611c0b57600080fd5b611c1483611bdc565b946020939093013593505050565b6001600160e01b031981168114610a8a57600080fd5b600060208284031215611c4a57600080fd5b813561090281611c22565b60008060208385031215611c6857600080fd5b82356001600160401b0380821115611c7f57600080fd5b818501915085601f830112611c9357600080fd5b813581811115611ca257600080fd5b866020828501011115611cb457600080fd5b60209290920196919550909350505050565b60005b83811015611ce1578181015183820152602001611cc9565b50506000910152565b60008151808452611d02816020860160208601611cc6565b601f01601f19169290920160200192915050565b6020815260006109026020830184611cea565b60008083601f840112611d3b57600080fd5b5081356001600160401b03811115611d5257600080fd5b6020830191508360208260051b8501011115611d6d57600080fd5b9250929050565b600080600080600060608688031215611d8c57600080fd5b611d9586611bdc565b945060208601356001600160401b0380821115611db157600080fd5b611dbd89838a01611d29565b90965094506040880135915080821115611dd657600080fd5b50611de388828901611d29565b969995985093965092949392505050565b600060208284031215611e0657600080fd5b5035919050565b600080600060608486031215611e2257600080fd5b611e2b84611bdc565b95602085013595506040909401359392505050565b634e487b7160e01b600052604160045260246000fd5b601f8201601f191681016001600160401b0381118282101715611e7b57611e7b611e40565b6040525050565b60006001600160401b03821115611e9b57611e9b611e40565b5060051b60200190565b600082601f830112611eb657600080fd5b81356020611ec382611e82565b604051611ed08282611e56565b80915083815260208101915060208460051b870101935086841115611ef457600080fd5b602086015b84811015611f105780358352918301918301611ef9565b509695505050505050565b600082601f830112611f2c57600080fd5b81356001600160401b03811115611f4557611f45611e40565b604051611f5c601f8301601f191660200182611e56565b818152846020838601011115611f7157600080fd5b816020850160208301376000918101602001919091529392505050565b600080600080600060a08688031215611fa657600080fd5b611faf86611bdc565b9450611fbd60208701611bdc565b935060408601356001600160401b0380821115611fd957600080fd5b611fe589838a01611ea5565b94506060880135915080821115611ffb57600080fd5b61200789838a01611ea5565b9350608088013591508082111561201d57600080fd5b5061202a88828901611f1b565b9150509295509295909350565b6000806040838503121561204a57600080fd5b8235915061205a60208401611bdc565b90509250929050565b6000806040838503121561207657600080fd5b82356001600160401b038082111561208d57600080fd5b818501915085601f8301126120a157600080fd5b813560206120ae82611e82565b6040516120bb8282611e56565b83815260059390931b85018201928281019150898411156120db57600080fd5b948201945b83861015612100576120f186611bdc565b825294820194908201906120e0565b9650508601359250508082111561211657600080fd5b5061212385828601611ea5565b9150509250929050565b60008151808452602080850194506020840160005b8381101561215e57815187529582019590820190600101612142565b509495945050505050565b602081526000610902602083018461212d565b6000806040838503121561218f57600080fd5b50508035926020909101359150565b6000806000606084860312156121b357600080fd5b6121bc84611bdc565b92506020840135915060408401356001600160401b038111156121de57600080fd5b6121ea86828701611f1b565b9150509250925092565b604081526000612207604083018561212d565b8281036020840152612219818561212d565b95945050505050565b6000806040838503121561223557600080fd5b61223e83611bdc565b91506020830135801515811461225357600080fd5b809150509250929050565b6000806040838503121561227157600080fd5b61227a83611bdc565b915061205a60208401611bdc565b600080600080600060a086880312156122a057600080fd5b6122a986611bdc565b94506122b760208701611bdc565b9350604086013592506060860135915060808601356001600160401b038111156122e057600080fd5b61202a88828901611f1b565b600181811c9082168061230057607f821691505b60208210810361232057634e487b7160e01b600052602260045260246000fd5b50919050565b60008351612338818460208801611cc6565b83519083019061234c818360208801611cc6565b01949350505050565b6020808252602e908201527f455243313135353a2063616c6c6572206973206e6f7420746f6b656e206f776e60408201526d195c881bdc88185c1c1c9bdd995960921b606082015260800190565b634e487b7160e01b600052603260045260246000fd5b601f821115610509576000816000526020600020601f850160051c810160208610156123e25750805b601f850160051c820191505b81811015610646578281556001016123ee565b81516001600160401b0381111561241a5761241a611e40565b61242e8161242884546122ec565b846123b9565b602080601f831160018114612463576000841561244b5750858301515b600019600386901b1c1916600185901b178555610646565b600085815260208120601f198616915b8281101561249257888601518255948401946001909101908401612473565b50858210156124b05787850151600019600388901b60f8161c191681555b5050505050600190811b01905550565b60208082526021908201527f455243313135353a206d696e7420746f20746865207a65726f206164647265736040820152607360f81b606082015260800190565b60208082526028908201527f455243313135353a2069647320616e6420616d6f756e7473206c656e677468206040820152670dad2e6dac2e8c6d60c31b606082015260800190565b634e487b7160e01b600052601160045260246000fd5b8082018082111561049457610494612549565b60208082526025908201527f455243313135353a207472616e7366657220746f20746865207a65726f206164604082015264647265737360d81b606082015260800190565b6020808252602a908201527f455243313135353a20696e73756666696369656e742062616c616e636520666f60408201526939103a3930b739b332b960b11b606082015260800190565b7f416363657373436f6e74726f6c3a206163636f756e7420000000000000000000815260008351612639816017850160208801611cc6565b7001034b99036b4b9b9b4b733903937b6329607d1b601791840191820152835161266a816028840160208801611cc6565b01602801949350505050565b6001600160a01b0386811682528516602082015260a0604082018190526000906126a29083018661212d565b82810360608401526126b4818661212d565b905082810360808401526126c88185611cea565b98975050505050505050565b6000602082840312156126e657600080fd5b815161090281611c22565b600060033d111561270a5760046000803e5060005160e01c5b90565b600060443d101561271b5790565b6040516003193d81016004833e81513d6001600160401b03816024840111818411171561274a57505050505090565b82850191508151818111156127625750505050505090565b843d870101602082850101111561277c5750505050505090565b61278b60208286010187611e56565b509095945050505050565b60208082526028908201527f455243313135353a204552433131353552656365697665722072656a656374656040820152676420746f6b656e7360c01b606082015260800190565b6001600160a01b03868116825285166020820152604081018490526060810183905260a06080820181905260009061281890830184611cea565b979650505050505050565b808202811582820484141761049457610494612549565b60008161284957612849612549565b506000190190565b8181038181111561049457610494612549565b634e487b7160e01b600052603160045260246000fdfea26469706673582212206def6b65761ecbb84dc04c5639b0055ac2bf5df28f4a1cf171be172bd276451f64736f6c63430008160033",
  "devdoc": {
    "events": {
      "ApprovalForAll(address,address,bool)": {
        "details": "Emitted when `account` grants or revokes permission to `operator` to transfer their tokens, according to `approved`."
      },
      "RoleAdminChanged(bytes32,bytes32,bytes32)": {
        "details": "Emitted when `newAdminRole` is set as ``role``'s admin role, replacing `previousAdminRole` `DEFAULT_ADMIN_ROLE` is the starting admin for all roles, despite {RoleAdminChanged} not being emitted signaling this. _Available since v3.1._"
      },
      "RoleGranted(bytes32,address,address)": {
        "details": "Emitted when `account` is granted `role`. `sender` is the account that originated the contract call, an admin role bearer except when using {AccessControl-_setupRole}."
      },
      "RoleRevoked(bytes32,address,address)": {
        "details": "Emitted when `account` is revoked `role`. `sender` is the account that originated the contract call:   - if using `revokeRole`, it is the admin role bearer   - if using `renounceRole`, it is the role bearer (i.e. `account`)"
      },
      "TransferBatch(address,address,address,uint256[],uint256[])": {
        "details": "Equivalent to multiple {TransferSingle} events, where `operator`, `from` and `to` are the same for all transfers."
      },
      "TransferSingle(address,address,address,uint256,uint256)": {
        "details": "Emitted when `value` tokens of token type `id` are transferred from `from` to `to` by `operator`."
      },
      "URI(string,uint256)": {
        "details": "Emitted when the URI for token type `id` changes to `value`, if it is a non-programmatic URI. If an {URI} event was emitted for `id`, the standard https://eips.ethereum.org/EIPS/eip-1155#metadata-extensions[guarantees] that `value` will equal the value returned by {IERC1155MetadataURI-uri}."
      }
    },
    "kind": "dev",
    "methods": {
      "balanceOf(address,uint256)": {
        "details": "See {IERC1155-balanceOf}. Requirements: - `account` cannot be the zero address."
      },
      "balanceOfBatch(address[],uint256[])": {
        "details": "See {IERC1155-balanceOfBatch}. Requirements: - `accounts` and `ids` must have the same length."
      },
      "batchMint(address,uint256[],uint256[])": {
        "details": "Mints multiple ERC1155 tokens and assigns them to the specified address.",
        "params": {
          "amounts": "The amounts of tokens to mint.",
          "ids": "The IDs of the tokens to mint.",
          "to": "The address to which the minted tokens will be assigned."
        }
      },
      "exists(uint256)": {
        "details": "Indicates whether any token exist with a given id, or not."
      },
      "getRoleAdmin(bytes32)": {
        "details": "Returns the admin role that controls `role`. See {grantRole} and {revokeRole}. To change a role's admin, use {_setRoleAdmin}."
      },
      "getRoleMember(bytes32,uint256)": {
        "details": "Returns one of the accounts that have `role`. `index` must be a value between 0 and {getRoleMemberCount}, non-inclusive. Role bearers are not sorted in any particular way, and their ordering may change at any point. WARNING: When using {getRoleMember} and {getRoleMemberCount}, make sure you perform all queries on the same block. See the following https://forum.openzeppelin.com/t/iterating-over-elements-on-enumerableset-in-openzeppelin-contracts/2296[forum post] for more information."
      },
      "getRoleMemberCount(bytes32)": {
        "details": "Returns the number of accounts that have `role`. Can be used together with {getRoleMember} to enumerate all bearers of a role."
      },
      "grantRole(bytes32,address)": {
        "details": "Grants `role` to `account`. If `account` had not been already granted `role`, emits a {RoleGranted} event. Requirements: - the caller must have ``role``'s admin role. May emit a {RoleGranted} event."
      },
      "hasRole(bytes32,address)": {
        "details": "Returns `true` if `account` has been granted `role`."
      },
      "isApprovedForAll(address,address)": {
        "details": "See {IERC1155-isApprovedForAll}."
      },
      "mint(address,uint256,uint256)": {
        "details": "Mints a single ERC1155 token and assigns it to the specified address.",
        "params": {
          "amount": "The amount of tokens to mint.",
          "id": "The ID of the token to mint.",
          "to": "The address to which the minted token will be assigned."
        }
      },
      "renounceRole(bytes32,address)": {
        "details": "Revokes `role` from the calling account. Roles are often managed via {grantRole} and {revokeRole}: this function's purpose is to provide a mechanism for accounts to lose their privileges if they are compromised (such as when a trusted device is misplaced). If the calling account had been revoked `role`, emits a {RoleRevoked} event. Requirements: - the caller must be `account`. May emit a {RoleRevoked} event."
      },
      "revokeRole(bytes32,address)": {
        "details": "Revokes `role` from `account`. If `account` had been granted `role`, emits a {RoleRevoked} event. Requirements: - the caller must have ``role``'s admin role. May emit a {RoleRevoked} event."
      },
      "safeBatchTransferFrom(address,address,uint256[],uint256[],bytes)": {
        "details": "See {IERC1155-safeBatchTransferFrom}."
      },
      "safeTransferFrom(address,address,uint256,uint256,bytes)": {
        "details": "See {IERC1155-safeTransferFrom}."
      },
      "setApprovalForAll(address,bool)": {
        "details": "See {IERC1155-setApprovalForAll}."
      },
      "setURI(string)": {
        "details": "Sets the base URI for metadata of ERC1155 tokens.",
        "params": {
          "uri_": "The new base URI."
        }
      },
      "totalSupply(uint256)": {
        "details": "Total amount of tokens in with a given id."
      }
    },
    "version": 1
  },
  "userdoc": {
    "kind": "user",
    "methods": {},
    "version": 1
  },
  "storageLayout": {
    "storage": [
      {
        "astId": 24,
        "contract": "src/mock/Erc1155NFT.sol:Erc1155DangDang",
        "label": "_roles",
        "offset": 0,
        "slot": "0",
        "type": "t_mapping(t_bytes32,t_struct(RoleData)19_storage)"
      },
      {
        "astId": 334,
        "contract": "src/mock/Erc1155NFT.sol:Erc1155DangDang",
        "label": "_roleMembers",
        "offset": 0,
        "slot": "1",
        "type": "t_mapping(t_bytes32,t_struct(AddressSet)4018_storage)"
      },
      {
        "astId": 564,
        "contract": "src/mock/Erc1155NFT.sol:Erc1155DangDang",
        "label": "_balances",
        "offset": 0,
        "slot": "2",
        "type": "t_mapping(t_uint256,t_mapping(t_address,t_uint256))"
      },
      {
        "astId": 570,
        "contract": "src/mock/Erc1155NFT.sol:Erc1155DangDang",
        "label": "_operatorApprovals",
        "offset": 0,
        "slot": "3",
        "type": "t_mapping(t_address,t_mapping(t_address,t_bool))"
      },
      {
        "astId": 572,
        "contract": "src/mock/Erc1155NFT.sol:Erc1155DangDang",
        "label": "_uri",
        "offset": 0,
        "slot": "4",
        "type": "t_string_storage"
      },
      {
        "astId": 1934,
        "contract": "src/mock/Erc1155NFT.sol:Erc1155DangDang",
        "label": "_totalSupply",
        "offset": 0,
        "slot": "5",
        "type": "t_mapping(t_uint256,t_uint256)"
      },
      {
        "astId": 9029,
        "contract": "src/mock/Erc1155NFT.sol:Erc1155DangDang",
        "label": "_name",
        "offset": 0,
        "slot": "6",
        "type": "t_string_storage"
      },
      {
        "astId": 9031,
        "contract": "src/mock/Erc1155NFT.sol:Erc1155DangDang",
        "label": "_symbol",
        "offset": 0,
        "slot": "7",
        "type": "t_string_storage"
      }
    ],
    "types": {
      "t_address": {
        "encoding": "inplace",
        "label": "address",
        "numberOfBytes": "20"
      },
      "t_array(t_bytes32)dyn_storage": {
        "base": "t_bytes32",
        "encoding": "dynamic_array",
        "label": "bytes32[]",
        "numberOfBytes": "32"
      },
      "t_bool": {
        "encoding": "inplace",
        "label": "bool",
        "numberOfBytes": "1"
      },
      "t_bytes32": {
        "encoding": "inplace",
        "label": "bytes32",
        "numberOfBytes": "32"
      },
      "t_mapping(t_address,t_bool)": {
        "encoding": "mapping",
        "key": "t_address",
        "label": "mapping(address => bool)",
        "numberOfBytes": "32",
        "value": "t_bool"
      },
      "t_mapping(t_address,t_mapping(t_address,t_bool))": {
        "encoding": "mapping",
        "key": "t_address",
        "label": "mapping(address => mapping(address => bool))",
        "numberOfBytes": "32",
        "value": "t_mapping(t_address,t_bool)"
      },
      "t_mapping(t_address,t_uint256)": {
        "encoding": "mapping",
        "key": "t_address",
        "label": "mapping(address => uint256)",
        "numberOfBytes": "32",
        "value": "t_uint256"
      },
      "t_mapping(t_bytes32,t_struct(AddressSet)4018_storage)": {
        "encoding": "mapping",
        "key": "t_bytes32",
        "label": "mapping(bytes32 => struct EnumerableSet.AddressSet)",
        "numberOfBytes": "32",
        "value": "t_struct(AddressSet)4018_storage"
      },
      "t_mapping(t_bytes32,t_struct(RoleData)19_storage)": {
        "encoding": "mapping",
        "key": "t_bytes32",
        "label": "mapping(bytes32 => struct AccessControl.RoleData)",
        "numberOfBytes": "32",
        "value": "t_struct(RoleData)19_storage"
      },
      "t_mapping(t_bytes32,t_uint256)": {
        "encoding": "mapping",
        "key": "t_bytes32",
        "label": "mapping(bytes32 => uint256)",
        "numberOfBytes": "32",
        "value": "t_uint256"
      },
      "t_mapping(t_uint256,t_mapping(t_address,t_uint256))": {
        "encoding": "mapping",
        "key": "t_uint256",
        "label": "mapping(uint256 => mapping(address => uint256))",
        "numberOfBytes": "32",
        "value": "t_mapping(t_address,t_uint256)"
      },
      "t_mapping(t_uint256,t_uint256)": {
        "encoding": "mapping",
        "key": "t_uint256",
        "label": "mapping(uint256 => uint256)",
        "numberOfBytes": "32",
        "value": "t_uint256"
      },
      "t_string_storage": {
        "encoding": "bytes",
        "label": "string",
        "numberOfBytes": "32"
      },
      "t_struct(AddressSet)4018_storage": {
        "encoding": "inplace",
        "label": "struct EnumerableSet.AddressSet",
        "members": [
          {
            "astId": 4017,
            "contract": "src/mock/Erc1155NFT.sol:Erc1155DangDang",
            "label": "_inner",
            "offset": 0,
            "slot": "0",
            "type": "t_struct(Set)3703_storage"
          }
        ],
        "numberOfBytes": "64"
      },
      "t_struct(RoleData)19_storage": {
        "encoding": "inplace",
        "label": "struct AccessControl.RoleData",
        "members": [
          {
            "astId": 16,
            "contract": "src/mock/Erc1155NFT.sol:Erc1155DangDang",
            "label": "members",
            "offset": 0,
            "slot": "0",
            "type": "t_mapping(t_address,t_bool)"
          },
          {
            "astId": 18,
            "contract": "src/mock/Erc1155NFT.sol:Erc1155DangDang",
            "label": "adminRole",
            "offset": 0,
            "slot": "1",
            "type": "t_bytes32"
          }
        ],
        "numberOfBytes": "64"
      },
      "t_struct(Set)3703_storage": {
        "encoding": "inplace",
        "label": "struct EnumerableSet.Set",
        "members": [
          {
            "astId": 3698,
            "contract": "src/mock/Erc1155NFT.sol:Erc1155DangDang",
            "label": "_values",
            "offset": 0,
            "slot": "0",
            "type": "t_array(t_bytes32)dyn_storage"
          },
          {
            "astId": 3702,
            "contract": "src/mock/Erc1155NFT.sol:Erc1155DangDang",
            "label": "_indexes",
            "offset": 0,
            "slot": "1",
            "type": "t_mapping(t_bytes32,t_uint256)"
          }
        ],
        "numberOfBytes": "64"
      },
      "t_uint256": {
        "encoding": "inplace",
        "label": "uint256",
        "numberOfBytes": "32"
      }
    }
  }
}